{
  "contractName": "FlightSuretyData",
  "abi": [
    {
      "inputs": [
        {
          "name": "id",
          "type": "string"
        },
        {
          "name": "name",
          "type": "string"
        },
        {
          "name": "country",
          "type": "string"
        }
      ],
      "payable": false,
      "stateMutability": "nonpayable",
      "type": "constructor",
      "signature": "constructor"
    },
    {
      "payable": true,
      "stateMutability": "payable",
      "type": "fallback"
    },
    {
      "constant": true,
      "inputs": [],
      "name": "isOperational",
      "outputs": [
        {
          "name": "",
          "type": "bool"
        }
      ],
      "payable": false,
      "stateMutability": "view",
      "type": "function",
      "signature": "0xcd905dff"
    },
    {
      "constant": false,
      "inputs": [
        {
          "name": "mode",
          "type": "bool"
        }
      ],
      "name": "setOperatingStatus",
      "outputs": [],
      "payable": false,
      "stateMutability": "nonpayable",
      "type": "function",
      "signature": "0x110466ed"
    },
    {
      "constant": false,
      "inputs": [
        {
          "name": "contractAddress",
          "type": "address"
        }
      ],
      "name": "authorizeCaller",
      "outputs": [],
      "payable": false,
      "stateMutability": "nonpayable",
      "type": "function",
      "signature": "0x2c388d5d"
    },
    {
      "constant": false,
      "inputs": [
        {
          "name": "contractAddress",
          "type": "address"
        }
      ],
      "name": "deauthorizeCaller",
      "outputs": [],
      "payable": false,
      "stateMutability": "nonpayable",
      "type": "function",
      "signature": "0x6873c21d"
    },
    {
      "constant": false,
      "inputs": [
        {
          "name": "sender",
          "type": "address"
        },
        {
          "name": "newAirline",
          "type": "address"
        },
        {
          "name": "id",
          "type": "string"
        },
        {
          "name": "name",
          "type": "string"
        },
        {
          "name": "country",
          "type": "string"
        }
      ],
      "name": "registerAirline",
      "outputs": [
        {
          "name": "success",
          "type": "bool"
        }
      ],
      "payable": false,
      "stateMutability": "nonpayable",
      "type": "function",
      "signature": "0x5ca9f3b7"
    },
    {
      "constant": false,
      "inputs": [
        {
          "name": "airline",
          "type": "address"
        }
      ],
      "name": "isAirline",
      "outputs": [
        {
          "name": "success",
          "type": "bool"
        }
      ],
      "payable": false,
      "stateMutability": "nonpayable",
      "type": "function",
      "signature": "0x0e248a11"
    },
    {
      "constant": false,
      "inputs": [
        {
          "name": "airline",
          "type": "address"
        }
      ],
      "name": "getAirlineData",
      "outputs": [
        {
          "name": "id",
          "type": "string"
        },
        {
          "name": "name",
          "type": "string"
        },
        {
          "name": "country",
          "type": "string"
        },
        {
          "name": "funds",
          "type": "uint256"
        },
        {
          "name": "isRegistered",
          "type": "bool"
        },
        {
          "name": "isFunded",
          "type": "bool"
        }
      ],
      "payable": false,
      "stateMutability": "nonpayable",
      "type": "function",
      "signature": "0xbbb5716a"
    },
    {
      "constant": false,
      "inputs": [
        {
          "name": "flightNumber",
          "type": "string"
        },
        {
          "name": "airline",
          "type": "address"
        }
      ],
      "name": "registerFlight",
      "outputs": [
        {
          "name": "success",
          "type": "bool"
        }
      ],
      "payable": false,
      "stateMutability": "nonpayable",
      "type": "function",
      "signature": "0x4bc8c9a4"
    },
    {
      "constant": false,
      "inputs": [
        {
          "name": "airline",
          "type": "address"
        },
        {
          "name": "flightNumber",
          "type": "string"
        },
        {
          "name": "timestamp",
          "type": "uint256"
        },
        {
          "name": "statusCode",
          "type": "uint8"
        }
      ],
      "name": "updateFlightStatus",
      "outputs": [],
      "payable": false,
      "stateMutability": "nonpayable",
      "type": "function",
      "signature": "0x4337bdd4"
    },
    {
      "constant": false,
      "inputs": [
        {
          "name": "flightNumber",
          "type": "string"
        }
      ],
      "name": "isFlightRegistered",
      "outputs": [
        {
          "name": "success",
          "type": "bool"
        }
      ],
      "payable": false,
      "stateMutability": "nonpayable",
      "type": "function",
      "signature": "0x0e1a27c4"
    },
    {
      "constant": false,
      "inputs": [
        {
          "name": "flightNumber",
          "type": "string"
        }
      ],
      "name": "getFlightData",
      "outputs": [
        {
          "name": "isRegistered",
          "type": "bool"
        },
        {
          "name": "statusCode",
          "type": "uint8"
        },
        {
          "name": "updatedTimestamp",
          "type": "uint256"
        },
        {
          "name": "airline",
          "type": "address"
        }
      ],
      "payable": false,
      "stateMutability": "nonpayable",
      "type": "function",
      "signature": "0x46a3c4bc"
    },
    {
      "constant": false,
      "inputs": [
        {
          "name": "key",
          "type": "bytes32"
        },
        {
          "name": "insurancePrice",
          "type": "uint256"
        }
      ],
      "name": "buy",
      "outputs": [],
      "payable": true,
      "stateMutability": "payable",
      "type": "function",
      "signature": "0x0ddeb632"
    },
    {
      "constant": true,
      "inputs": [
        {
          "name": "key",
          "type": "bytes32"
        }
      ],
      "name": "getInsuranceData",
      "outputs": [
        {
          "name": "insuranceKey",
          "type": "bytes32"
        },
        {
          "name": "isInsured",
          "type": "bool"
        },
        {
          "name": "isPaid",
          "type": "bool"
        },
        {
          "name": "insurancePrice",
          "type": "uint256"
        },
        {
          "name": "insurancePayout",
          "type": "uint256"
        }
      ],
      "payable": false,
      "stateMutability": "view",
      "type": "function",
      "signature": "0x4cb74b19"
    },
    {
      "constant": true,
      "inputs": [],
      "name": "creditInsurees",
      "outputs": [],
      "payable": false,
      "stateMutability": "pure",
      "type": "function",
      "signature": "0x36cee484"
    },
    {
      "constant": true,
      "inputs": [],
      "name": "pay",
      "outputs": [],
      "payable": false,
      "stateMutability": "pure",
      "type": "function",
      "signature": "0x1b9265b8"
    },
    {
      "constant": false,
      "inputs": [
        {
          "name": "airline",
          "type": "address"
        },
        {
          "name": "value",
          "type": "uint256"
        }
      ],
      "name": "fund",
      "outputs": [],
      "payable": true,
      "stateMutability": "payable",
      "type": "function",
      "signature": "0x7b1837de"
    }
  ],
  "bytecode": "0x60806040526001600060146101000a81548160ff02191690831515021790555060046002556000604051908082528060200260200182016040528015620000555781602001602082028038833980820191505090505b50600390805190602001906200006d929190620002c0565b503480156200007b57600080fd5b5060405162002f0e38038062002f0e833981018060405281019080805182019291906020018051820192919060200180518201929190505050336000806101000a81548173ffffffffffffffffffffffffffffffffffffffff021916908373ffffffffffffffffffffffffffffffffffffffff16021790555060e0604051908101604052806000809054906101000a900473ffffffffffffffffffffffffffffffffffffffff1673ffffffffffffffffffffffffffffffffffffffff1681526020018481526020018381526020018281526020016000815260200160011515815260200160001515815250600460008060009054906101000a900473ffffffffffffffffffffffffffffffffffffffff1673ffffffffffffffffffffffffffffffffffffffff1673ffffffffffffffffffffffffffffffffffffffff16815260200190815260200160002060008201518160000160006101000a81548173ffffffffffffffffffffffffffffffffffffffff021916908373ffffffffffffffffffffffffffffffffffffffff16021790555060208201518160010190805190602001906200022b9291906200034f565b5060408201518160020190805190602001906200024a9291906200034f565b506060820151816003019080519060200190620002699291906200034f565b506080820151816004015560a08201518160050160006101000a81548160ff02191690831515021790555060c08201518160050160016101000a81548160ff02191690831515021790555090505050505062000444565b8280548282559060005260206000209081019282156200033c579160200282015b828111156200033b5782518260006101000a81548173ffffffffffffffffffffffffffffffffffffffff021916908373ffffffffffffffffffffffffffffffffffffffff16021790555091602001919060010190620002e1565b5b5090506200034b9190620003d6565b5090565b828054600181600116156101000203166002900490600052602060002090601f016020900481019282601f106200039257805160ff1916838001178555620003c3565b82800160010185558215620003c3579182015b82811115620003c2578251825591602001919060010190620003a5565b5b509050620003d291906200041c565b5090565b6200041991905b808211156200041557600081816101000a81549073ffffffffffffffffffffffffffffffffffffffff021916905550600101620003dd565b5090565b90565b6200044191905b808211156200043d57600081600090555060010162000423565b5090565b90565b612aba80620004546000396000f3006080604052600436106100e6576000357c0100000000000000000000000000000000000000000000000000000000900463ffffffff1680630ddeb632146100e85780630e1a27c4146101165780630e248a1114610169578063110466ed146101c45780631b9265b8146101f35780632c388d5d1461020a57806336cee4841461024d5780634337bdd41461026457806346a3c4bc146102d65780634bc8c9a4146103705780634cb74b19146103e35780635ca9f3b7146104545780636873c21d146105175780637b1837de1461055a578063bbb5716a1461059a578063cd905dff1461074b575b005b61011460048036038101908080356000191690602001909291908035906020019092919050505061077a565b005b34801561012257600080fd5b5061014f600480360381019080803590602001908201803590602001919091929391929390505050610adf565b604051808215151515815260200191505060405180910390f35b34801561017557600080fd5b506101aa600480360381019080803573ffffffffffffffffffffffffffffffffffffffff169060200190929190505050610b1f565b604051808215151515815260200191505060405180910390f35b3480156101d057600080fd5b506101f1600480360381019080803515159060200190929190505050610b78565b005b3480156101ff57600080fd5b50610208610c59565b005b34801561021657600080fd5b5061024b600480360381019080803573ffffffffffffffffffffffffffffffffffffffff169060200190929190505050610c5b565b005b34801561025957600080fd5b50610262610d66565b005b34801561027057600080fd5b506102d4600480360381019080803573ffffffffffffffffffffffffffffffffffffffff16906020019092919080359060200190820180359060200191909192939192939080359060200190929190803560ff169060200190929190505050610d68565b005b3480156102e257600080fd5b5061030f6004803603810190808035906020019082018035906020019190919293919293905050506110ab565b60405180851515151581526020018460ff1660ff1681526020018381526020018273ffffffffffffffffffffffffffffffffffffffff1673ffffffffffffffffffffffffffffffffffffffff16815260200194505050505060405180910390f35b34801561037c57600080fd5b506103c9600480360381019080803590602001908201803590602001919091929391929390803573ffffffffffffffffffffffffffffffffffffffff16906020019092919050505061124a565b604051808215151515815260200191505060405180910390f35b3480156103ef57600080fd5b506104126004803603810190808035600019169060200190929190505050611652565b60405180866000191660001916815260200185151515158152602001841515151581526020018381526020018281526020019550505050505060405180910390f35b34801561046057600080fd5b506104fd600480360381019080803573ffffffffffffffffffffffffffffffffffffffff169060200190929190803573ffffffffffffffffffffffffffffffffffffffff1690602001909291908035906020019082018035906020019190919293919293908035906020019082018035906020019190919293919293908035906020019082018035906020019190919293919293905050506117e8565b604051808215151515815260200191505060405180910390f35b34801561052357600080fd5b50610558600480360381019080803573ffffffffffffffffffffffffffffffffffffffff169060200190929190505050611f83565b005b610598600480360381019080803573ffffffffffffffffffffffffffffffffffffffff1690602001909291908035906020019092919050505061208d565b005b3480156105a657600080fd5b506105db600480360381019080803573ffffffffffffffffffffffffffffffffffffffff169060200190929190505050612493565b60405180806020018060200180602001878152602001861515151581526020018515151515815260200184810384528a818151815260200191508051906020019080838360005b8381101561063d578082015181840152602081019050610622565b50505050905090810190601f16801561066a5780820380516001836020036101000a031916815260200191505b50848103835289818151815260200191508051906020019080838360005b838110156106a3578082015181840152602081019050610688565b50505050905090810190601f1680156106d05780820380516001836020036101000a031916815260200191505b50848103825288818151815260200191508051906020019080838360005b838110156107095780820151818401526020810190506106ee565b50505050905090810190601f1680156107365780820380516001836020036101000a031916815260200191505b50995050505050505050505060405180910390f35b34801561075757600080fd5b506107606128ea565b604051808215151515815260200191505060405180910390f35b600060149054906101000a900460ff161515610824576040517f08c379a00000000000000000000000000000000000000000000000000000000081526004018080602001828103825260258152602001807f436f6e74726163742069732063757272656e746c79206e6f74206f706572617481526020017f696f6e616c00000000000000000000000000000000000000000000000000000081525060400191505060405180910390fd5b60018060003373ffffffffffffffffffffffffffffffffffffffff1673ffffffffffffffffffffffffffffffffffffffff168152602001908152602001600020541415156108da576040517f08c379a00000000000000000000000000000000000000000000000000000000081526004018080602001828103825260188152602001807f43616c6c6572206973206e6f7420617574686f72697a6564000000000000000081525060200191505060405180910390fd5b60066000836000191660001916815260200190815260200160002060010160019054906101000a900460ff161515156109a1576040517f08c379a000000000000000000000000000000000000000000000000000000000815260040180806020018281038252602d8152602001807f50617373656e67657220697320616c726561647920696e737572656420666f7281526020017f207468617420666c696768742e0000000000000000000000000000000000000081525060400191505060405180910390fd5b6000811180156109b2575060018111155b1515610a26576040517f08c379a00000000000000000000000000000000000000000000000000000000081526004018080602001828103825260208152602001807f496e737572616e636520707269636520697320757020746f203120657468657281525060200191505060405180910390fd5b60a0604051908101604052808360001916815260200160001515815260200160011515815260200182815260200160008152506006600084600019166000191681526020019081526020016000206000820151816000019060001916905560208201518160010160006101000a81548160ff02191690831515021790555060408201518160010160016101000a81548160ff02191690831515021790555060608201518160020155608082015181600301559050505050565b60006005838360405180838380828437820191505092505050908152602001604051809103902060000160009054906101000a900460ff16905092915050565b6000600460008373ffffffffffffffffffffffffffffffffffffffff1673ffffffffffffffffffffffffffffffffffffffff16815260200190815260200160002060050160009054906101000a900460ff169050919050565b6000809054906101000a900473ffffffffffffffffffffffffffffffffffffffff1673ffffffffffffffffffffffffffffffffffffffff163373ffffffffffffffffffffffffffffffffffffffff16141515610c3c576040517f08c379a000000000000000000000000000000000000000000000000000000000815260040180806020018281038252601c8152602001807f43616c6c6572206973206e6f7420636f6e7472616374206f776e65720000000081525060200191505060405180910390fd5b80600060146101000a81548160ff02191690831515021790555050565b565b6000809054906101000a900473ffffffffffffffffffffffffffffffffffffffff1673ffffffffffffffffffffffffffffffffffffffff163373ffffffffffffffffffffffffffffffffffffffff16141515610d1f576040517f08c379a000000000000000000000000000000000000000000000000000000000815260040180806020018281038252601c8152602001807f43616c6c6572206973206e6f7420636f6e7472616374206f776e65720000000081525060200191505060405180910390fd5b60018060008373ffffffffffffffffffffffffffffffffffffffff1673ffffffffffffffffffffffffffffffffffffffff1681526020019081526020016000208190555050565b565b600060149054906101000a900460ff161515610e12576040517f08c379a00000000000000000000000000000000000000000000000000000000081526004018080602001828103825260258152602001807f436f6e74726163742069732063757272656e746c79206e6f74206f706572617481526020017f696f6e616c00000000000000000000000000000000000000000000000000000081525060400191505060405180910390fd5b60018060003373ffffffffffffffffffffffffffffffffffffffff1673ffffffffffffffffffffffffffffffffffffffff16815260200190815260200160002054141515610ec8576040517f08c379a00000000000000000000000000000000000000000000000000000000081526004018080602001828103825260188152602001807f43616c6c6572206973206e6f7420617574686f72697a6564000000000000000081525060200191505060405180910390fd5b600460008673ffffffffffffffffffffffffffffffffffffffff1673ffffffffffffffffffffffffffffffffffffffff16815260200190815260200160002060050160009054906101000a900460ff161515610f8c576040517f08c379a00000000000000000000000000000000000000000000000000000000081526004018080602001828103825260198152602001807f4169726c696e65206973206e6f7420726567697374657265640000000000000081525060200191505060405180910390fd5b6005848460405180838380828437820191505092505050908152602001604051809103902060000160009054906101000a900460ff161515611036576040517f08c379a00000000000000000000000000000000000000000000000000000000081526004018080602001828103825260198152602001807f466c69676874206973206e6f7420726567697374657265642e0000000000000081525060200191505060405180910390fd5b806005858560405180838380828437820191505092505050908152602001604051809103902060000160016101000a81548160ff021916908360ff1602179055508160058585604051808383808284378201915050925050509081526020016040518091039020600101819055505050505050565b6000806000806005868660405180838380828437820191505092505050908152602001604051809103902060000160009054906101000a900460ff16151561115b576040517f08c379a00000000000000000000000000000000000000000000000000000000081526004018080602001828103825260198152602001807f466c69676874206973206e6f7420726567697374657265642e0000000000000081525060200191505060405180910390fd5b6005868660405180838380828437820191505092505050908152602001604051809103902060000160009054906101000a900460ff1693506005868660405180838380828437820191505092505050908152602001604051809103902060000160019054906101000a900460ff169250600586866040518083838082843782019150509250505090815260200160405180910390206001015491506005868660405180838380828437820191505092505050908152602001604051809103902060020160009054906101000a900473ffffffffffffffffffffffffffffffffffffffff16905092959194509250565b60008060149054906101000a900460ff1615156112f5576040517f08c379a00000000000000000000000000000000000000000000000000000000081526004018080602001828103825260258152602001807f436f6e74726163742069732063757272656e746c79206e6f74206f706572617481526020017f696f6e616c00000000000000000000000000000000000000000000000000000081525060400191505060405180910390fd5b60018060003373ffffffffffffffffffffffffffffffffffffffff1673ffffffffffffffffffffffffffffffffffffffff168152602001908152602001600020541415156113ab576040517f08c379a00000000000000000000000000000000000000000000000000000000081526004018080602001828103825260188152602001807f43616c6c6572206973206e6f7420617574686f72697a6564000000000000000081525060200191505060405180910390fd5b600460008373ffffffffffffffffffffffffffffffffffffffff1673ffffffffffffffffffffffffffffffffffffffff16815260200190815260200160002060050160009054906101000a900460ff16151561146f576040517f08c379a00000000000000000000000000000000000000000000000000000000081526004018080602001828103825260198152602001807f4169726c696e65206973206e6f7420726567697374657265640000000000000081525060200191505060405180910390fd5b6005848460405180838380828437820191505092505050908152602001604051809103902060000160009054906101000a900460ff1615151561151a576040517f08c379a000000000000000000000000000000000000000000000000000000000815260040180806020018281038252601d8152602001807f466c6967687420697320616c726561647920726567697374657265642e00000081525060200191505060405180910390fd5b608060405190810160405280600115158152602001600060ff1681526020014281526020018373ffffffffffffffffffffffffffffffffffffffff168152506005858560405180838380828437820191505092505050908152602001604051809103902060008201518160000160006101000a81548160ff02191690831515021790555060208201518160000160016101000a81548160ff021916908360ff1602179055506040820151816001015560608201518160020160006101000a81548173ffffffffffffffffffffffffffffffffffffffff021916908373ffffffffffffffffffffffffffffffffffffffff1602179055509050506005848460405180838380828437820191505092505050908152602001604051809103902060000160009054906101000a900460ff1690509392505050565b600080600080600060066000876000191660001916815260200190815260200160002060010160019054906101000a900460ff161515611720576040517f08c379a00000000000000000000000000000000000000000000000000000000081526004018080602001828103825260298152602001807f50617373656e676572206973206e6f7420696e737572656420666f722074686181526020017f7420666c696768742e000000000000000000000000000000000000000000000081525060400191505060405180910390fd5b60066000876000191660001916815260200190815260200160002060000154945060066000876000191660001916815260200190815260200160002060010160019054906101000a900460ff16935060066000876000191660001916815260200190815260200160002060010160009054906101000a900460ff16925060066000876000191660001916815260200190815260200160002060020154915060066000876000191660001916815260200190815260200160002060030154905091939590929450565b60008060149054906101000a900460ff161515611893576040517f08c379a00000000000000000000000000000000000000000000000000000000081526004018080602001828103825260258152602001807f436f6e74726163742069732063757272656e746c79206e6f74206f706572617481526020017f696f6e616c00000000000000000000000000000000000000000000000000000081525060400191505060405180910390fd5b600460008973ffffffffffffffffffffffffffffffffffffffff1673ffffffffffffffffffffffffffffffffffffffff16815260200190815260200160002060050160009054906101000a900460ff16151515611958576040517f08c379a000000000000000000000000000000000000000000000000000000000815260040180806020018281038252601e8152602001807f4169726c696e6520697320616c726561647920726567697374657265642e000081525060200191505060405180910390fd5b600460008a73ffffffffffffffffffffffffffffffffffffffff1673ffffffffffffffffffffffffffffffffffffffff16815260200190815260200160002060050160009054906101000a900460ff161515611a42576040517f08c379a00000000000000000000000000000000000000000000000000000000081526004018080602001828103825260238152602001807f43616c6c6572206973206e6f742072656769737465726564206173206169726c81526020017f696e65000000000000000000000000000000000000000000000000000000000081525060400191505060405180910390fd5b60033390806001815401808255809150509060018203906000526020600020016000909192909190916101000a81548173ffffffffffffffffffffffffffffffffffffffff021916908373ffffffffffffffffffffffffffffffffffffffff1602179055505060046003805490501015611ccc5760e0604051908101604052808973ffffffffffffffffffffffffffffffffffffffff16815260200188888080601f016020809104026020016040519081016040528093929190818152602001838380828437820191505050505050815260200186868080601f016020809104026020016040519081016040528093929190818152602001838380828437820191505050505050815260200184848080601f01602080910402602001604051908101604052809392919081815260200183838082843782019150505050505081526020016000815260200160011515815260200160001515815250600460008a73ffffffffffffffffffffffffffffffffffffffff1673ffffffffffffffffffffffffffffffffffffffff16815260200190815260200160002060008201518160000160006101000a81548173ffffffffffffffffffffffffffffffffffffffff021916908373ffffffffffffffffffffffffffffffffffffffff1602179055506020820151816001019080519060200190611c3f92919061291c565b506040820151816002019080519060200190611c5c92919061291c565b506060820151816003019080519060200190611c7992919061291c565b506080820151816004015560a08201518160050160006101000a81548160ff02191690831515021790555060c08201518160050160016101000a81548160ff021916908315150217905550905050611f25565b60e0604051908101604052808973ffffffffffffffffffffffffffffffffffffffff16815260200188888080601f016020809104026020016040519081016040528093929190818152602001838380828437820191505050505050815260200186868080601f016020809104026020016040519081016040528093929190818152602001838380828437820191505050505050815260200184848080601f01602080910402602001604051908101604052809392919081815260200183838082843782019150505050505081526020016000815260200160011515815260200160001515815250600460008a73ffffffffffffffffffffffffffffffffffffffff1673ffffffffffffffffffffffffffffffffffffffff16815260200190815260200160002060008201518160000160006101000a81548173ffffffffffffffffffffffffffffffffffffffff021916908373ffffffffffffffffffffffffffffffffffffffff1602179055506020820151816001019080519060200190611e5592919061291c565b506040820151816002019080519060200190611e7292919061291c565b506060820151816003019080519060200190611e8f92919061291c565b506080820151816004015560a08201518160050160006101000a81548160ff02191690831515021790555060c08201518160050160016101000a81548160ff0219169083151502179055509050506000604051908082528060200260200182016040528015611f0d5781602001602082028038833980820191505090505b5060039080519060200190611f2392919061299c565b505b600460008973ffffffffffffffffffffffffffffffffffffffff1673ffffffffffffffffffffffffffffffffffffffff16815260200190815260200160002060050160009054906101000a900460ff16905098975050505050505050565b6000809054906101000a900473ffffffffffffffffffffffffffffffffffffffff1673ffffffffffffffffffffffffffffffffffffffff163373ffffffffffffffffffffffffffffffffffffffff16141515612047576040517f08c379a000000000000000000000000000000000000000000000000000000000815260040180806020018281038252601c8152602001807f43616c6c6572206973206e6f7420636f6e7472616374206f776e65720000000081525060200191505060405180910390fd5b600160008273ffffffffffffffffffffffffffffffffffffffff1673ffffffffffffffffffffffffffffffffffffffff1681526020019081526020016000206000905550565b60008060149054906101000a900460ff161515612138576040517f08c379a00000000000000000000000000000000000000000000000000000000081526004018080602001828103825260258152602001807f436f6e74726163742069732063757272656e746c79206e6f74206f706572617481526020017f696f6e616c00000000000000000000000000000000000000000000000000000081525060400191505060405180910390fd5b60018060003373ffffffffffffffffffffffffffffffffffffffff1673ffffffffffffffffffffffffffffffffffffffff168152602001908152602001600020541415156121ee576040517f08c379a00000000000000000000000000000000000000000000000000000000081526004018080602001828103825260188152602001807f43616c6c6572206973206e6f7420617574686f72697a6564000000000000000081525060200191505060405180910390fd5b600460008473ffffffffffffffffffffffffffffffffffffffff1673ffffffffffffffffffffffffffffffffffffffff16815260200190815260200160002060050160009054906101000a900460ff1615156122b2576040517f08c379a00000000000000000000000000000000000000000000000000000000081526004018080602001828103825260198152602001807f4169726c696e65206973206e6f7420726567697374657265640000000000000081525060200191505060405180910390fd5b61230782600460008673ffffffffffffffffffffffffffffffffffffffff1673ffffffffffffffffffffffffffffffffffffffff1681526020019081526020016000206004015461290090919063ffffffff16565b9050600081111515612381576040517f08c379a00000000000000000000000000000000000000000000000000000000081526004018080602001828103825260178152602001807f46756e6473206f766572666c6f77206f63636f7572656400000000000000000081525060200191505060405180910390fd5b80600460008573ffffffffffffffffffffffffffffffffffffffff1673ffffffffffffffffffffffffffffffffffffffff16815260200190815260200160002060040181905550600a81101515612432576001600460008573ffffffffffffffffffffffffffffffffffffffff1673ffffffffffffffffffffffffffffffffffffffff16815260200190815260200160002060050160016101000a81548160ff02191690831515021790555061248e565b6000600460008573ffffffffffffffffffffffffffffffffffffffff1673ffffffffffffffffffffffffffffffffffffffff16815260200190815260200160002060050160016101000a81548160ff0219169083151502179055505b505050565b60608060606000806000600460008873ffffffffffffffffffffffffffffffffffffffff1673ffffffffffffffffffffffffffffffffffffffff16815260200190815260200160002060050160009054906101000a900460ff161515612561576040517f08c379a000000000000000000000000000000000000000000000000000000000815260040180806020018281038252601a8152602001807f4169726c696e65206973206e6f7420726567697374657265642000000000000081525060200191505060405180910390fd5b600460008873ffffffffffffffffffffffffffffffffffffffff1673ffffffffffffffffffffffffffffffffffffffff1681526020019081526020016000206001018054600181600116156101000203166002900480601f0160208091040260200160405190810160405280929190818152602001828054600181600116156101000203166002900480156126375780601f1061260c57610100808354040283529160200191612637565b820191906000526020600020905b81548152906001019060200180831161261a57829003601f168201915b50505050509550600460008873ffffffffffffffffffffffffffffffffffffffff1673ffffffffffffffffffffffffffffffffffffffff1681526020019081526020016000206002018054600181600116156101000203166002900480601f0160208091040260200160405190810160405280929190818152602001828054600181600116156101000203166002900480156127145780601f106126e957610100808354040283529160200191612714565b820191906000526020600020905b8154815290600101906020018083116126f757829003601f168201915b50505050509450600460008873ffffffffffffffffffffffffffffffffffffffff1673ffffffffffffffffffffffffffffffffffffffff1681526020019081526020016000206003018054600181600116156101000203166002900480601f0160208091040260200160405190810160405280929190818152602001828054600181600116156101000203166002900480156127f15780601f106127c6576101008083540402835291602001916127f1565b820191906000526020600020905b8154815290600101906020018083116127d457829003601f168201915b50505050509350600460008873ffffffffffffffffffffffffffffffffffffffff1673ffffffffffffffffffffffffffffffffffffffff168152602001908152602001600020600401549250600460008873ffffffffffffffffffffffffffffffffffffffff1673ffffffffffffffffffffffffffffffffffffffff16815260200190815260200160002060050160009054906101000a900460ff169150600460008873ffffffffffffffffffffffffffffffffffffffff1673ffffffffffffffffffffffffffffffffffffffff16815260200190815260200160002060050160019054906101000a900460ff16905091939550919395565b60008060149054906101000a900460ff16905090565b6000818301905082811015151561291357fe5b80905092915050565b828054600181600116156101000203166002900490600052602060002090601f016020900481019282601f1061295d57805160ff191683800117855561298b565b8280016001018555821561298b579182015b8281111561298a57825182559160200191906001019061296f565b5b5090506129989190612a26565b5090565b828054828255906000526020600020908101928215612a15579160200282015b82811115612a145782518260006101000a81548173ffffffffffffffffffffffffffffffffffffffff021916908373ffffffffffffffffffffffffffffffffffffffff160217905550916020019190600101906129bc565b5b509050612a229190612a4b565b5090565b612a4891905b80821115612a44576000816000905550600101612a2c565b5090565b90565b612a8b91905b80821115612a8757600081816101000a81549073ffffffffffffffffffffffffffffffffffffffff021916905550600101612a51565b5090565b905600a165627a7a723058204bc5dc8ee4da6c0adfac59931e50ee1afaca4f11d03d73a069833f564288e5450029",
  "source": "pragma solidity ^0.4.25;\n\nimport \"../client/node_modules/openzeppelin-solidity/contracts/math/SafeMath.sol\";\n\ncontract FlightSuretyData {\n    using SafeMath for uint256;\n\n    /********************************************************************************************/\n    /*                                       DATA VARIABLES                                     */\n    /********************************************************************************************/\n    \n\n\n    address private contractOwner;                  // Account used to deploy contract\n    bool private operational = true;                // Blocks all state changes throughout the contract if false\n    mapping(address => uint256) private authorizedContracts;\n  \n    /********************************************************************************************/\n    /* State variables for airline functions                                                  \n    /*  Registration of fifth and subsequent airlines requires multi-party consensus of 50% \n    /* of registered airlines\n    /********************************************************************************************/\n    uint constant M = 4;\n    uint private multiPartyConsensus = 4;   // multi-party consensus\n    address[] multiCalls = new address[](0);\n\n    struct Airline {\n        address airline;\n        string id;\n        string name;\n        string country;\n        uint   funds; \n        bool isRegistered;\n        bool isFunded;\n    }\n\n    mapping(address => Airline) airlines;      // Mapping for storing airlines\n\n    /********************************************************************************************/\n    /* State variables for flight functions                                                  \n    /********************************************************************************************/\n    struct Flight {\n        bool isRegistered;\n        uint8 statusCode;\n        uint256 updatedTimestamp;        \n        address airline;\n    }\n    mapping(string => Flight) private flights;\n\n    /********************************************************************************************/\n    /* State variables for Flight Insurance functions                                                  \n    /********************************************************************************************/\n    \n    struct FlightInsurance {\n        bytes32 insuranceKey;\n        bool isPaid;\n        bool isInsured;\n        uint256 insurancePrice;  \n        uint256 insurancePayout;  \n    }\n\n    mapping(bytes32 => FlightInsurance) private flightInsurances;\n\n\n    /********************************************************************************************/\n    /*                                       EVENT DEFINITIONS                                  */\n    /********************************************************************************************/\n\n\n    /********************************************************************************************/\n    /*                                       FUNCTION MODIFIERS                                 */\n    /********************************************************************************************/\n\n    // Modifiers help avoid duplication of code. They are typically used to validate something\n    // before a function is allowed to be executed.\n\n    /**\n    * @dev Modifier that requires the \"operational\" boolean variable to be \"true\"\n    *      This is used on all state changing functions to pause the contract in \n    *      the event there is an issue that needs to be fixed\n    */\n    modifier requireIsOperational() \n    {\n        require(operational, \"Contract is currently not operational\");\n        _;  // All modifiers require an \"_\" which indicates where the function body will be added\n    }\n\n    /**\n    * @dev Modifier that requires the \"ContractOwner\" account to be the function caller\n    */\n    modifier requireContractOwner()\n    {\n        require(msg.sender == contractOwner, \"Caller is not contract owner\");\n        _;\n    }\n\n    /**\n    * @dev Modifier that checks if caller is authorized\n    */\n    modifier isCallerAuthorized()\n    {\n        require(authorizedContracts[msg.sender] == 1, \"Caller is not authorized\");\n        _;\n    }\n\n    /********************************************************************************************/\n    /*                                       UTILITY FUNCTIONS                                  */\n    /********************************************************************************************/\n\n    /**\n    * @dev Get operating status of contract\n    *\n    * @return A bool that is the current operating status\n    */      \n    function isOperational() external view returns(bool) \n    {\n        return operational;\n    }\n\n\n    /**\n    * @dev Sets contract operations on/off\n    *\n    * When operational mode is disabled, all write transactions except for this one will fail\n    */    \n    function setOperatingStatus(bool mode) \n                            external\n                            requireContractOwner \n    {\n        operational = mode;\n    }\n\n    function authorizeCaller(address contractAddress)\n                            external\n                            requireContractOwner\n    {\n        authorizedContracts[contractAddress] = 1;\n    }\n\n    function deauthorizeCaller(address contractAddress)\n                            external\n                            requireContractOwner\n    {\n        delete authorizedContracts[contractAddress];\n    }\n    \n    /********************************************************************************************/\n    /*                                       Constructor                                        */\n    /********************************************************************************************/\n\n    /**\n    * @dev Constructor\n    *      The deploying account becomes contractOwner\n    */\n    constructor(string id, string name, string country) public \n    {\n        contractOwner = msg.sender;\n\n        //  R1. First airline is registered when contract (FlightSuretyData) is deployed.\n            airlines[contractOwner] = Airline(\n                {\n                    airline: contractOwner, \n                    id: id, \n                    name: name, \n                    country: country,\n                    funds: 0,\n                    isRegistered: true,\n                    isFunded: false\n                }); \n\n    }\n    /********************************************************************************************/\n    /*                                     AIRLINE SMART CONTRACT FUNCTIONS                      */\n    /********************************************************************************************/\n   /**\n    * @dev Add an airline to the registration queue\n    *       - R1. First airline is registered when contract (FlightSuretyData) is deployed.\n    *       - R2. New Airline registration Can only be called from FlightSuretyApp contract\n    *       - R3. Only existing airline may register a new airline \n    *            until there are at least four airlines registered\n    *       - R4. Registration of fifth and subsequent airlines \n    *             requires multi-party consensus of 50% of registered airlines\n    *       - R5. Airline can be registered, but does not participate in contract \n    *             until it submits funding of 10 ether\n    */   \n    function registerAirline(address sender,address newAirline, string id, string name, string country) \n            external\n            requireIsOperational\n            //isCallerAuthorized\n            returns(bool success)\n    {\n        require(!airlines[newAirline].isRegistered, \"Airline is already registered.\");\n\n        //  - R3. Only existing airline may register a new airline \n        //        until there are at least four airlines registered\n        require(airlines[sender].isRegistered, \"Caller is not registered as airline\");\n\n\n        // - R4. Registration of fifth and subsequent airlines \n        //       requires multi-party consensus of 50% of registered airlines\n        multiCalls.push(msg.sender);\n\n        // first 4 airline does not need multi party consense \n        if (multiCalls.length < M) {\n        // Register now\n            airlines[newAirline] = Airline(\n                {\n                    airline: newAirline, \n                    id: id, \n                    name: name, \n                    country: country,\n                    funds: 0,\n                    isRegistered: true,\n                    isFunded: false\n                });   \n        } else {         // check multi party consense \n        // Register now\n            airlines[newAirline] = Airline(\n                {\n                    airline: newAirline, \n                    id: id, \n                    name: name, \n                    country: country,\n                    funds: 0,\n                    isRegistered: true,\n                    isFunded: false\n                }); \n            multiCalls = new address[](0);  \n        }\n\n        return airlines[newAirline].isRegistered;\n    }\n\n    function isAirline(address airline) \n            external \n            returns(bool success)\n    {\n        return airlines[airline].isRegistered;\n    }\n\n    // function 'getAirlineData' that fetches the airline data\n    function getAirlineData(address airline) \n        external \n        returns \n        (\n        string id,\n        string name,\n        string country,\n        uint   funds,\n        bool isRegistered,\n        bool isFunded\n        ) \n    {\n        require(airlines[airline].isRegistered, \"Airline is not registered \");\n\n        // return  attributes\n        id = airlines[airline].id;\n        name = airlines[airline].name;\n        country = airlines[airline].country;\n        funds = airlines[airline].funds;\n        isRegistered = airlines[airline].isRegistered;\n        isFunded = airlines[airline].isFunded;\n    }\n    /********************************************************************************************/\n    /*                                     FLIGHT SMART CONTRACT FUNCTIONS                      */\n    /********************************************************************************************/\n   /**\n    * @dev Register a future flight for insuring.\n    *\n    */  \n    function registerFlight(string flightNumber, address airline)\n                                external\n                                requireIsOperational\n                                isCallerAuthorized\n                                returns(bool success)\n    {\n        require(airlines[airline].isRegistered, \"Airline is not registered\");\n        \n        require(!flights[flightNumber].isRegistered, \"Flight is already registered.\");\n\n        flights[flightNumber] = Flight(\n            {\n            isRegistered: true,\n            airline: airline,\n            statusCode: 0,    // STATUS_CODE_UNKNOWN\n            updatedTimestamp: block.timestamp \n            });\n        return flights[flightNumber].isRegistered;\n    }\n    function updateFlightStatus( address airline, \n                                string  flightNumber, \n                                uint256 timestamp, \n                                uint8 statusCode )\n                                external\n                                requireIsOperational\n                                isCallerAuthorized\n    {\n        require(airlines[airline].isRegistered, \"Airline is not registered\");\n        \n        require(flights[flightNumber].isRegistered, \"Flight is not registered.\");\n\n        flights[flightNumber].statusCode = statusCode;\n        flights[flightNumber].updatedTimestamp = timestamp;\n    }\n    /**\n    * @dev Check if Flight is registered\n    *\n    * @return A bool that indicates if the flight is registered\n    */   \n    function isFlightRegistered(string flightNumber)\n            external \n            returns(bool success)\n    {\n        return flights[flightNumber].isRegistered;\n    }\n\n    // function 'getFlightData' that fetches the flight data\n    function getFlightData(string flightNumber) \n        external \n        returns \n        (\n        bool isRegistered,\n        uint8 statusCode,\n        uint256 updatedTimestamp,        \n        address airline\n        ) \n    {\n        require(flights[flightNumber].isRegistered, \"Flight is not registered.\");\n        // return  attributes\n        isRegistered = flights[flightNumber].isRegistered;\n        statusCode = flights[flightNumber].statusCode;\n        updatedTimestamp = flights[flightNumber].updatedTimestamp;\n        airline = flights[flightNumber].airline;\n    }\n\n    /********************************************************************************************/\n    /*                                     INSURANCE SMART CONTRACT FUNCTIONS                      */\n    /********************************************************************************************/\n   /**\n    * @dev Passenger buy insurance for a flight\n    */   \n    function buy(\n        bytes32 key,\n        uint256 insurancePrice) \n        external payable\n        requireIsOperational\n        isCallerAuthorized\n    {\n        require(!flightInsurances[key].isInsured ,              \"Passenger is already insured for that flight.\"); \n        require( (insurancePrice > 0 && insurancePrice <= 1) ,  \"Insurance price is up to 1 ether\"); \n\n\n        flightInsurances[key] = FlightInsurance(\n                {\n                insuranceKey: key,\n                isPaid: false, \n                isInsured: true, \n                insurancePrice: insurancePrice,\n                insurancePayout: 0\n                });              \n    }\n\n    // function 'getInsuranceData' that fetches the insurance  data \n    function getInsuranceData(bytes32 key) \n        external \n        view\n        returns \n        (\n        bytes32 insuranceKey,\n        bool isInsured,\n        bool isPaid,\n        uint256 insurancePrice,\n        uint256 insurancePayout  \n        ) \n    {\n        require(flightInsurances[key].isInsured ,     \"Passenger is not insured for that flight.\"); \n\n        // return  attributes\n        insuranceKey = flightInsurances[key].insuranceKey;\n        isInsured= flightInsurances[key].isInsured; \n        isPaid= flightInsurances[key].isPaid; \n        insurancePrice = flightInsurances[key].insurancePrice;\n        insurancePayout = flightInsurances[key].insurancePayout;\n    }\n\n    /**\n     *  @dev Credits payouts to insurees\n    */\n    function creditInsurees() external pure\n    {\n    }\n    \n\n    /**\n     *  @dev Transfers eligible payout funds to insuree\n     *\n    */\n    function pay()external pure\n    {\n    }\n\n   /**\n    * @dev Initial funding for the insurance. Unless there are too many delayed flights\n    *      resulting in insurance payouts, the contract should be self-sustaining\n    *\n    */   \n    function fund(address airline, uint256 value) \n            public payable\n            requireIsOperational\n            isCallerAuthorized\n    {\n        require(airlines[airline].isRegistered, \"Airline is not registered\");\n        uint256 totalFunds = airlines[airline].funds.add(value);\n        require(totalFunds > 0, \"Funds overflow occoured\");\n        airlines[airline].funds = totalFunds; \n        if(totalFunds >= 10){\n            airlines[airline].isFunded = true;\n        } else{\n            airlines[airline].isFunded = false;\n        }\n    }\n\n    /**\n    * @dev Fallback function for funding smart contract.\n    *\n    */\n    function() external  payable \n    {\n        //fund();\n    }\n\n\n}\n\n",
  "sourcePath": "/Users/nacikalyoncu/Documents/Vagrant-VM/vagrant/blockchain/BlockchainDeveloper/Projects/udbcd-p7-flight-surety/contracts/FlightSuretyData.sol",
  "compiler": {
    "name": "solc",
    "version": "0.4.25+commit.59dbf8f1.Emscripten.clang"
  },
  "schemaVersion": "3.0.6",
  "updatedAt": "2019-04-22T03:47:17.530Z",
  "devdoc": {
    "methods": {
      "buy(bytes32,uint256)": {
        "details": "Passenger buy insurance for a flight"
      },
      "creditInsurees()": {
        "details": "Credits payouts to insurees"
      },
      "fund(address,uint256)": {
        "details": "Initial funding for the insurance. Unless there are too many delayed flights     resulting in insurance payouts, the contract should be self-sustaining    "
      },
      "isFlightRegistered(string)": {
        "details": "Check if Flight is registered",
        "return": "A bool that indicates if the flight is registered"
      },
      "isOperational()": {
        "details": "Get operating status of contract",
        "return": "A bool that is the current operating status"
      },
      "pay()": {
        "details": "Transfers eligible payout funds to insuree    "
      },
      "registerAirline(address,address,string,string,string)": {
        "details": "Add an airline to the registration queue      - R1. First airline is registered when contract (FlightSuretyData) is deployed.      - R2. New Airline registration Can only be called from FlightSuretyApp contract      - R3. Only existing airline may register a new airline            until there are at least four airlines registered      - R4. Registration of fifth and subsequent airlines             requires multi-party consensus of 50% of registered airlines      - R5. Airline can be registered, but does not participate in contract             until it submits funding of 10 ether"
      },
      "registerFlight(string,address)": {
        "details": "Register a future flight for insuring.    "
      },
      "setOperatingStatus(bool)": {
        "details": "Sets contract operations on/off    * When operational mode is disabled, all write transactions except for this one will fail"
      }
    }
  },
  "userdoc": {
    "methods": {}
  }
}